{
  "contractName": "AliasesV1",
  "abi": [
    {
      "constant": true,
      "inputs": [],
      "name": "claimedAliasesCount",
      "outputs": [
        {
          "name": "",
          "type": "uint256"
        }
      ],
      "payable": false,
      "stateMutability": "view",
      "type": "function"
    },
    {
      "constant": true,
      "inputs": [
        {
          "name": "_alias",
          "type": "string"
        }
      ],
      "name": "isClaimedAlias",
      "outputs": [
        {
          "name": "isClaimed",
          "type": "bool"
        }
      ],
      "payable": false,
      "stateMutability": "view",
      "type": "function"
    },
    {
      "constant": true,
      "inputs": [
        {
          "name": "_alias",
          "type": "string"
        }
      ],
      "name": "aliasToAddress",
      "outputs": [
        {
          "name": "addr",
          "type": "address"
        }
      ],
      "payable": false,
      "stateMutability": "view",
      "type": "function"
    },
    {
      "constant": true,
      "inputs": [],
      "name": "aliasesCount",
      "outputs": [
        {
          "name": "count",
          "type": "uint256"
        }
      ],
      "payable": false,
      "stateMutability": "view",
      "type": "function"
    },
    {
      "constant": true,
      "inputs": [
        {
          "name": "_index",
          "type": "uint256"
        }
      ],
      "name": "aliasAtIndex",
      "outputs": [
        {
          "name": "alias",
          "type": "string"
        }
      ],
      "payable": false,
      "stateMutability": "view",
      "type": "function"
    },
    {
      "constant": false,
      "inputs": [
        {
          "name": "_alias",
          "type": "string"
        }
      ],
      "name": "claimAlias",
      "outputs": [],
      "payable": false,
      "stateMutability": "nonpayable",
      "type": "function"
    },
    {
      "constant": false,
      "inputs": [
        {
          "name": "_alias",
          "type": "string"
        }
      ],
      "name": "releaseAlias",
      "outputs": [],
      "payable": false,
      "stateMutability": "nonpayable",
      "type": "function"
    }
  ],
  "bytecode": "0x608060405234801561001057600080fd5b50610f74806100206000396000f300608060405260043610610083576000357c0100000000000000000000000000000000000000000000000000000000900463ffffffff16806302dd317714610088578063227fde2214610131578063732719e91461015c5780639bcf3c0814610187578063a73b8ec11461022d578063cc50d333146102ae578063dba953f214610317575b600080fd5b34801561009457600080fd5b506100ef600480360381019080803590602001908201803590602001908080601f0160208091040260200160405190810160405280939291908181526020018383808284378201915050505050509192919290505050610380565b604051808273ffffffffffffffffffffffffffffffffffffffff1673ffffffffffffffffffffffffffffffffffffffff16815260200191505060405180910390f35b34801561013d57600080fd5b50610146610513565b6040518082815260200191505060405180910390f35b34801561016857600080fd5b50610171610519565b6040518082815260200191505060405180910390f35b34801561019357600080fd5b506101b260048036038101908080359060200190929190505050610563565b6040518080602001828103825283818151815260200191508051906020019080838360005b838110156101f25780820151818401526020810190506101d7565b50505050905090810190601f16801561021f5780820380516001836020036101000a031916815260200191505b509250505060405180910390f35b34801561023957600080fd5b50610294600480360381019080803590602001908201803590602001908080601f01602080910402602001604051908101604052809392919081815260200183838082843782019150505050505091929192905050506107f4565b604051808215151515815260200191505060405180910390f35b3480156102ba57600080fd5b50610315600480360381019080803590602001908201803590602001908080601f01602080910402602001604051908101604052809392919081815260200183838082843782019150505050505091929192905050506108bb565b005b34801561032357600080fd5b5061037e600480360381019080803590602001908201803590602001908080601f0160208091040260200160405190810160405280939291908181526020018383808284378201915050505050509192919290505050610ba3565b005b600061038b82610e5a565b151515610400576040517f08c379a000000000000000000000000000000000000000000000000000000000815260040180806020018281038252600e8152602001807f496e76616c696420616c6961732e00000000000000000000000000000000000081525060200191505060405180910390fd5b610409826107f4565b151561047d576040517f08c379a00000000000000000000000000000000000000000000000000000000081526004018080602001828103825260168152602001807f416c696173206e6f7420636c61696d6564207965742e0000000000000000000081525060200191505060405180910390fd5b6000826040518082805190602001908083835b6020831015156104b55780518252602082019150602081019050602083039250610490565b6001836020036101000a038019825116818451168082178552505050505050905001915050908152602001604051809103902060010160009054906101000a900473ffffffffffffffffffffffffffffffffffffffff169050919050565b60025481565b6000600160003373ffffffffffffffffffffffffffffffffffffffff1673ffffffffffffffffffffffffffffffffffffffff16815260200190815260200160002080549050905090565b60608082600160003373ffffffffffffffffffffffffffffffffffffffff1673ffffffffffffffffffffffffffffffffffffffff1681526020019081526020016000208054905011151561061f576040517f08c379a000000000000000000000000000000000000000000000000000000000815260040180806020018281038252600e8152602001807f496e76616c696420696e6465782e00000000000000000000000000000000000081525060200191505060405180910390fd5b600160003373ffffffffffffffffffffffffffffffffffffffff1673ffffffffffffffffffffffffffffffffffffffff1681526020019081526020016000208381548110151561066b57fe5b906000526020600020018054600181600116156101000203166002900480601f0160208091040260200160405190810160405280929190818152602001828054600181600116156101000203166002900480156107095780601f106106de57610100808354040283529160200191610709565b820191906000526020600020905b8154815290600101906020018083116106ec57829003601f168201915b505050505090503373ffffffffffffffffffffffffffffffffffffffff166000826040518082805190602001908083835b60208310151561075f578051825260208201915060208101905060208303925061073a565b6001836020036101000a038019825116818451168082178552505050505050905001915050908152602001604051809103902060010160009054906101000a900473ffffffffffffffffffffffffffffffffffffffff1673ffffffffffffffffffffffffffffffffffffffff1614156107da578091506107ee565b602060405190810160405280600081525091505b50919050565b60008073ffffffffffffffffffffffffffffffffffffffff166000836040518082805190602001908083835b6020831015156108455780518252602082019150602081019050602083039250610820565b6001836020036101000a038019825116818451168082178552505050505050905001915050908152602001604051809103902060010160009054906101000a900473ffffffffffffffffffffffffffffffffffffffff1673ffffffffffffffffffffffffffffffffffffffff1614159050919050565b6108c481610e5a565b151515610939576040517f08c379a000000000000000000000000000000000000000000000000000000000815260040180806020018281038252600e8152602001807f496e76616c696420616c6961732e00000000000000000000000000000000000081525060200191505060405180910390fd5b610942816107f4565b15156109b6576040517f08c379a00000000000000000000000000000000000000000000000000000000081526004018080602001828103825260168152602001807f416c696173206e6f7420636c61696d6564207965742e0000000000000000000081525060200191505060405180910390fd5b3373ffffffffffffffffffffffffffffffffffffffff166000826040518082805190602001908083835b602083101515610a0557805182526020820191506020810190506020830392506109e0565b6001836020036101000a038019825116818451168082178552505050505050905001915050908152602001604051809103902060010160009054906101000a900473ffffffffffffffffffffffffffffffffffffffff1673ffffffffffffffffffffffffffffffffffffffff16141515610ae7576040517f08c379a00000000000000000000000000000000000000000000000000000000081526004018080602001828103825260108152602001807f416c696173206e6f7420796f7572732e0000000000000000000000000000000081525060200191505060405180910390fd5b6000816040518082805190602001908083835b602083101515610b1f5780518252602082019150602081019050602083039250610afa565b6001836020036101000a03801982511681845116808217855250505050505090500191505090815260200160405180910390206000808201600090556001820160006101000a81549073ffffffffffffffffffffffffffffffffffffffff02191690555050610b9a6001600254610e6e90919063ffffffff16565b60028190555050565b610bac81610e5a565b151515610c21576040517f08c379a000000000000000000000000000000000000000000000000000000000815260040180806020018281038252600e8152602001807f496e76616c696420616c6961732e00000000000000000000000000000000000081525060200191505060405180910390fd5b610c2a816107f4565b151515610c9f576040517f08c379a00000000000000000000000000000000000000000000000000000000081526004018080602001828103825260198152602001807f416c69617320697320616c726561647920636c61696d65642e0000000000000081525060200191505060405180910390fd5b426000826040518082805190602001908083835b602083101515610cd85780518252602082019150602081019050602083039250610cb3565b6001836020036101000a038019825116818451168082178552505050505050905001915050908152602001604051809103902060000181905550336000826040518082805190602001908083835b602083101515610d4b5780518252602082019150602081019050602083039250610d26565b6001836020036101000a038019825116818451168082178552505050505050905001915050908152602001604051809103902060010160006101000a81548173ffffffffffffffffffffffffffffffffffffffff021916908373ffffffffffffffffffffffffffffffffffffffff160217905550600160003373ffffffffffffffffffffffffffffffffffffffff1673ffffffffffffffffffffffffffffffffffffffff168152602001908152602001600020819080600181540180825580915050906001820390600052602060002001600090919290919091509080519060200190610e39929190610ea3565b5050610e516001600254610e8790919063ffffffff16565b60028190555050565b600060608290506000815114915050919050565b6000828211151515610e7c57fe5b818303905092915050565b60008183019050828110151515610e9a57fe5b80905092915050565b828054600181600116156101000203166002900490600052602060002090601f016020900481019282601f10610ee457805160ff1916838001178555610f12565b82800160010185558215610f12579182015b82811115610f11578251825591602001919060010190610ef6565b5b509050610f1f9190610f23565b5090565b610f4591905b80821115610f41576000816000905550600101610f29565b5090565b905600a165627a7a72305820cbbd0bad88a284c915a78b40460c4a54beadfaa679cc3d54f4367113fbe7c5370029",
  "source": "pragma solidity ^0.4.24;\r\n\r\ncontract AliasesV1 {\r\n    using SafeMath for uint;\r\n    \r\n    struct Alias {\r\n        uint claimedOn;\r\n        address owner;\r\n    }\r\n    \r\n    mapping(string => Alias) aliasesMap;\r\n    mapping(address => string[]) addrAliasesMap;\r\n\r\n    uint public claimedAliasesCount;\r\n\r\n    function isClaimedAlias(string _alias) public view returns (bool isClaimed) {\r\n        return aliasesMap[_alias].owner != address(0x0);\r\n    }\r\n    \r\n    function aliasToAddress(string _alias) public view returns (address addr) {\r\n        require(!isEmptyString(_alias), 'Invalid alias.');\r\n        require (isClaimedAlias(_alias), 'Alias not claimed yet.');\r\n        return aliasesMap[_alias].owner;\r\n    }\r\n    \r\n    function aliasesCount() public view returns (uint count) {\r\n        return addrAliasesMap[msg.sender].length;\r\n    }\r\n    \r\n    function aliasAtIndex(uint _index) public view returns (string alias) {\r\n        require(addrAliasesMap[msg.sender].length > _index, 'Invalid index.');\r\n        \r\n        string memory savedAlias = addrAliasesMap[msg.sender][_index];\r\n        if (aliasesMap[savedAlias].owner == msg.sender){\r\n            return savedAlias;\r\n        }\r\n        \r\n        return '';\r\n    }\r\n    \r\n    function claimAlias(string _alias) public {\r\n        require(!isEmptyString(_alias), 'Invalid alias.');\r\n        require(!(isClaimedAlias(_alias)), 'Alias is already claimed.');\r\n        \r\n        aliasesMap[_alias].claimedOn = now;\r\n        aliasesMap[_alias].owner = msg.sender;\r\n        \r\n        addrAliasesMap[msg.sender].push(_alias);\r\n        \r\n        claimedAliasesCount = claimedAliasesCount.add(1);\r\n    }\r\n    \r\n    function releaseAlias(string _alias) public {\r\n        require(!isEmptyString(_alias), 'Invalid alias.');\r\n        require(isClaimedAlias(_alias), 'Alias not claimed yet.');\r\n        require(aliasesMap[_alias].owner == msg.sender, 'Alias not yours.');\r\n        \r\n        delete aliasesMap[_alias];\r\n        \r\n        claimedAliasesCount = claimedAliasesCount.sub(1);\r\n    }\r\n    \r\n    function isEmptyString(string _val) private pure returns (bool isEmpty) {\r\n        bytes memory stringBytes = bytes(_val);\r\n        return stringBytes.length == 0;\r\n    }\r\n}\r\n\r\n/**\r\n * @title SafeMath\r\n * @dev Math operations with safety checks that throw on error\r\n */\r\nlibrary SafeMath {\r\n\r\n  /**\r\n  * @dev Multiplies two numbers, throws on overflow.\r\n  */\r\n  function mul(uint256 a, uint256 b) internal pure returns (uint256 c) {\r\n    // Gas optimization: this is cheaper than asserting 'a' not being zero, but the\r\n    // benefit is lost if 'b' is also tested.\r\n    // See: https://github.com/OpenZeppelin/openzeppelin-solidity/pull/522\r\n    if (a == 0) {\r\n      return 0;\r\n    }\r\n\r\n    c = a * b;\r\n    assert(c / a == b);\r\n    return c;\r\n  }\r\n\r\n  /**\r\n  * @dev Integer division of two numbers, truncating the quotient.\r\n  */\r\n  function div(uint256 a, uint256 b) internal pure returns (uint256) {\r\n    // assert(b > 0); // Solidity automatically throws when dividing by 0\r\n    // uint256 c = a / b;\r\n    // assert(a == b * c + a % b); // There is no case in which this doesn't hold\r\n    return a / b;\r\n  }\r\n\r\n  /**\r\n  * @dev Subtracts two numbers, throws on overflow (i.e. if subtrahend is greater than minuend).\r\n  */\r\n  function sub(uint256 a, uint256 b) internal pure returns (uint256) {\r\n    assert(b <= a);\r\n    return a - b;\r\n  }\r\n\r\n  /**\r\n  * @dev Adds two numbers, throws on overflow.\r\n  */\r\n  function add(uint256 a, uint256 b) internal pure returns (uint256 c) {\r\n    c = a + b;\r\n    assert(c >= a);\r\n    return c;\r\n  }\r\n}",
  "sourcePath": "C:\\Temp\\truffle-test\\contracts\\AliasesV1.sol",
  "compiler": {
    "name": "solc",
    "version": "0.4.24+commit.e67f0147.Emscripten.clang"
  },
  "schemaVersion": "2.0.1",
  "updatedAt": "2018-07-09T22:07:30.932Z"
}