{
  "contractName": "AliasesV1",
  "abi": [
    {
      "constant": true,
      "inputs": [],
      "name": "claimedAliasesCount",
      "outputs": [
        {
          "name": "",
          "type": "uint256"
        }
      ],
      "payable": false,
      "stateMutability": "view",
      "type": "function"
    },
    {
      "constant": true,
      "inputs": [],
      "name": "wallet",
      "outputs": [
        {
          "name": "",
          "type": "address"
        }
      ],
      "payable": false,
      "stateMutability": "view",
      "type": "function"
    },
    {
      "constant": true,
      "inputs": [],
      "name": "claimEthFeeAmount",
      "outputs": [
        {
          "name": "",
          "type": "uint256"
        }
      ],
      "payable": false,
      "stateMutability": "view",
      "type": "function"
    },
    {
      "constant": true,
      "inputs": [],
      "name": "owner",
      "outputs": [
        {
          "name": "",
          "type": "address"
        }
      ],
      "payable": false,
      "stateMutability": "view",
      "type": "function"
    },
    {
      "constant": true,
      "inputs": [],
      "name": "claimTokenFeeAmount",
      "outputs": [
        {
          "name": "",
          "type": "uint256"
        }
      ],
      "payable": false,
      "stateMutability": "view",
      "type": "function"
    },
    {
      "constant": true,
      "inputs": [],
      "name": "claimTokenAddress",
      "outputs": [
        {
          "name": "",
          "type": "address"
        }
      ],
      "payable": false,
      "stateMutability": "view",
      "type": "function"
    },
    {
      "constant": false,
      "inputs": [
        {
          "name": "_newOwner",
          "type": "address"
        }
      ],
      "name": "transferOwnership",
      "outputs": [],
      "payable": false,
      "stateMutability": "nonpayable",
      "type": "function"
    },
    {
      "inputs": [
        {
          "name": "_wallet",
          "type": "address"
        },
        {
          "name": "_claimTokenAddress",
          "type": "address"
        },
        {
          "name": "_claimTokenFeeAmount",
          "type": "uint256"
        },
        {
          "name": "_claimEthFeeAmount",
          "type": "uint256"
        }
      ],
      "payable": false,
      "stateMutability": "nonpayable",
      "type": "constructor"
    },
    {
      "anonymous": false,
      "inputs": [
        {
          "indexed": false,
          "name": "claimedAliasesCount",
          "type": "uint256"
        }
      ],
      "name": "ClaimedAliasesCountChanged",
      "type": "event"
    },
    {
      "constant": true,
      "inputs": [
        {
          "name": "_alias",
          "type": "string"
        }
      ],
      "name": "isClaimedAlias",
      "outputs": [
        {
          "name": "isClaimed",
          "type": "bool"
        }
      ],
      "payable": false,
      "stateMutability": "view",
      "type": "function"
    },
    {
      "constant": true,
      "inputs": [
        {
          "name": "_alias",
          "type": "string"
        }
      ],
      "name": "aliasToAddress",
      "outputs": [
        {
          "name": "addr",
          "type": "address"
        }
      ],
      "payable": false,
      "stateMutability": "view",
      "type": "function"
    },
    {
      "constant": true,
      "inputs": [],
      "name": "aliasesCount",
      "outputs": [
        {
          "name": "count",
          "type": "uint256"
        }
      ],
      "payable": false,
      "stateMutability": "view",
      "type": "function"
    },
    {
      "constant": true,
      "inputs": [
        {
          "name": "_index",
          "type": "uint256"
        }
      ],
      "name": "aliasAtIndex",
      "outputs": [
        {
          "name": "alias",
          "type": "string"
        }
      ],
      "payable": false,
      "stateMutability": "view",
      "type": "function"
    },
    {
      "constant": false,
      "inputs": [
        {
          "name": "_alias",
          "type": "string"
        }
      ],
      "name": "claimAliasWithEth",
      "outputs": [],
      "payable": true,
      "stateMutability": "payable",
      "type": "function"
    },
    {
      "constant": false,
      "inputs": [
        {
          "name": "_alias",
          "type": "string"
        }
      ],
      "name": "claimAliasWithToken",
      "outputs": [],
      "payable": false,
      "stateMutability": "nonpayable",
      "type": "function"
    },
    {
      "constant": false,
      "inputs": [
        {
          "name": "_alias",
          "type": "string"
        }
      ],
      "name": "releaseAlias",
      "outputs": [],
      "payable": false,
      "stateMutability": "nonpayable",
      "type": "function"
    }
  ],
  "bytecode": "0x608060405234801561001057600080fd5b506040516080806117bb83398101806040528101908080519060200190929190805190602001909291908051906020019092919080519060200190929190505050336000806101000a81548173ffffffffffffffffffffffffffffffffffffffff021916908373ffffffffffffffffffffffffffffffffffffffff160217905550600073ffffffffffffffffffffffffffffffffffffffff168473ffffffffffffffffffffffffffffffffffffffff16141515156100cd57600080fd5b600073ffffffffffffffffffffffffffffffffffffffff168373ffffffffffffffffffffffffffffffffffffffff161415151561010957600080fd5b6000821015151561011957600080fd5b6000811015151561012957600080fd5b83600160006101000a81548173ffffffffffffffffffffffffffffffffffffffff021916908373ffffffffffffffffffffffffffffffffffffffff16021790555082600260006101000a81548173ffffffffffffffffffffffffffffffffffffffff021916908373ffffffffffffffffffffffffffffffffffffffff1602179055508160038190555080600481905550505050506115ef806101cc6000396000f3006080604052600436106100d0576000357c0100000000000000000000000000000000000000000000000000000000900463ffffffff16806302dd3177146100d5578063227fde221461017e578063521eb273146101a9578063732719e9146102005780637bb52a771461022b5780638da5cb5b146102565780639bcf3c08146102ad578063a0d1cc0514610353578063a73b8ec1146103af578063acc0690214610430578063b4064d2a1461045b578063ca573cf0146104b2578063cc50d3331461051b578063f2fde38b14610584575b600080fd5b3480156100e157600080fd5b5061013c600480360381019080803590602001908201803590602001908080601f01602080910402602001604051908101604052809392919081815260200183838082843782019150505050505091929192905050506105c7565b604051808273ffffffffffffffffffffffffffffffffffffffff1673ffffffffffffffffffffffffffffffffffffffff16815260200191505060405180910390f35b34801561018a57600080fd5b5061019361065f565b6040518082815260200191505060405180910390f35b3480156101b557600080fd5b506101be610665565b604051808273ffffffffffffffffffffffffffffffffffffffff1673ffffffffffffffffffffffffffffffffffffffff16815260200191505060405180910390f35b34801561020c57600080fd5b5061021561068b565b6040518082815260200191505060405180910390f35b34801561023757600080fd5b506102406106d5565b6040518082815260200191505060405180910390f35b34801561026257600080fd5b5061026b6106db565b604051808273ffffffffffffffffffffffffffffffffffffffff1673ffffffffffffffffffffffffffffffffffffffff16815260200191505060405180910390f35b3480156102b957600080fd5b506102d860048036038101908080359060200190929190505050610700565b6040518080602001828103825283818151815260200191508051906020019080838360005b838110156103185780820151818401526020810190506102fd565b50505050905090810190601f1680156103455780820380516001836020036101000a031916815260200191505b509250505060405180910390f35b6103ad600480360381019080803590602001908201803590602001908080601f0160208091040260200160405190810160405280939291908181526020018383808284378201915050505050509192919290505050610991565b005b3480156103bb57600080fd5b50610416600480360381019080803590602001908201803590602001908080601f0160208091040260200160405190810160405280939291908181526020018383808284378201915050505050509192919290505050610b7c565b604051808215151515815260200191505060405180910390f35b34801561043c57600080fd5b50610445610c43565b6040518082815260200191505060405180910390f35b34801561046757600080fd5b50610470610c49565b604051808273ffffffffffffffffffffffffffffffffffffffff1673ffffffffffffffffffffffffffffffffffffffff16815260200191505060405180910390f35b3480156104be57600080fd5b50610519600480360381019080803590602001908201803590602001908080601f0160208091040260200160405190810160405280939291908181526020018383808284378201915050505050509192919290505050610c6f565b005b34801561052757600080fd5b50610582600480360381019080803590602001908201803590602001908080601f0160208091040260200160405190810160405280939291908181526020018383808284378201915050505050509192919290505050610ee6565b005b34801561059057600080fd5b506105c5600480360381019080803573ffffffffffffffffffffffffffffffffffffffff169060200190929190505050611207565b005b60006006826040518082805190602001908083835b60208310151561060157805182526020820191506020810190506020830392506105dc565b6001836020036101000a038019825116818451168082178552505050505050905001915050908152602001604051809103902060010160009054906101000a900473ffffffffffffffffffffffffffffffffffffffff169050919050565b60055481565b600160009054906101000a900473ffffffffffffffffffffffffffffffffffffffff1681565b6000600760003373ffffffffffffffffffffffffffffffffffffffff1673ffffffffffffffffffffffffffffffffffffffff16815260200190815260200160002080549050905090565b60045481565b6000809054906101000a900473ffffffffffffffffffffffffffffffffffffffff1681565b60608082600760003373ffffffffffffffffffffffffffffffffffffffff1673ffffffffffffffffffffffffffffffffffffffff168152602001908152602001600020805490501115156107bc576040517f08c379a000000000000000000000000000000000000000000000000000000000815260040180806020018281038252600e8152602001807f496e76616c696420696e6465782e00000000000000000000000000000000000081525060200191505060405180910390fd5b600760003373ffffffffffffffffffffffffffffffffffffffff1673ffffffffffffffffffffffffffffffffffffffff1681526020019081526020016000208381548110151561080857fe5b906000526020600020018054600181600116156101000203166002900480601f0160208091040260200160405190810160405280929190818152602001828054600181600116156101000203166002900480156108a65780601f1061087b576101008083540402835291602001916108a6565b820191906000526020600020905b81548152906001019060200180831161088957829003601f168201915b505050505090503373ffffffffffffffffffffffffffffffffffffffff166006826040518082805190602001908083835b6020831015156108fc57805182526020820191506020810190506020830392506108d7565b6001836020036101000a038019825116818451168082178552505050505050905001915050908152602001604051809103902060010160009054906101000a900473ffffffffffffffffffffffffffffffffffffffff1673ffffffffffffffffffffffffffffffffffffffff1614156109775780915061098b565b602060405190810160405280600081525091505b50919050565b61099a816112e1565b151515610a0f576040517f08c379a000000000000000000000000000000000000000000000000000000000815260040180806020018281038252600e8152602001807f496e76616c696420616c6961732e00000000000000000000000000000000000081525060200191505060405180910390fd5b610a1881610b7c565b151515610a8d576040517f08c379a00000000000000000000000000000000000000000000000000000000081526004018080602001828103825260198152602001807f416c69617320697320616c726561647920636c61696d65642e0000000000000081525060200191505060405180910390fd5b60006004541115610b70576004543410151515610aa957600080fd5b600160009054906101000a900473ffffffffffffffffffffffffffffffffffffffff1673ffffffffffffffffffffffffffffffffffffffff166108fc6004549081150290604051600060405180830381858888f19350505050158015610b13573d6000803e3d6000fd5b503373ffffffffffffffffffffffffffffffffffffffff166108fc610b43600454346112f590919063ffffffff16565b9081150290604051600060405180830381858888f19350505050158015610b6e573d6000803e3d6000fd5b505b610b798161130e565b50565b60008073ffffffffffffffffffffffffffffffffffffffff166006836040518082805190602001908083835b602083101515610bcd5780518252602082019150602081019050602083039250610ba8565b6001836020036101000a038019825116818451168082178552505050505050905001915050908152602001604051809103902060010160009054906101000a900473ffffffffffffffffffffffffffffffffffffffff1673ffffffffffffffffffffffffffffffffffffffff1614159050919050565b60035481565b600260009054906101000a900473ffffffffffffffffffffffffffffffffffffffff1681565b610c78816112e1565b151515610ced576040517f08c379a000000000000000000000000000000000000000000000000000000000815260040180806020018281038252600e8152602001807f496e76616c696420616c6961732e00000000000000000000000000000000000081525060200191505060405180910390fd5b610cf681610b7c565b151515610d6b576040517f08c379a00000000000000000000000000000000000000000000000000000000081526004018080602001828103825260198152602001807f416c69617320697320616c726561647920636c61696d65642e0000000000000081525060200191505060405180910390fd5b60006003541115610eda57600260009054906101000a900473ffffffffffffffffffffffffffffffffffffffff1673ffffffffffffffffffffffffffffffffffffffff166323b872dd33600160009054906101000a900473ffffffffffffffffffffffffffffffffffffffff166003546040518463ffffffff167c0100000000000000000000000000000000000000000000000000000000028152600401808473ffffffffffffffffffffffffffffffffffffffff1673ffffffffffffffffffffffffffffffffffffffff1681526020018373ffffffffffffffffffffffffffffffffffffffff1673ffffffffffffffffffffffffffffffffffffffff1681526020018281526020019350505050602060405180830381600087803b158015610e9357600080fd5b505af1158015610ea7573d6000803e3d6000fd5b505050506040513d6020811015610ebd57600080fd5b81019080805190602001909291905050501515610ed957600080fd5b5b610ee38161130e565b50565b610eef816112e1565b151515610f64576040517f08c379a000000000000000000000000000000000000000000000000000000000815260040180806020018281038252600e8152602001807f496e76616c696420616c6961732e00000000000000000000000000000000000081525060200191505060405180910390fd5b610f6d81610b7c565b1515610fe1576040517f08c379a00000000000000000000000000000000000000000000000000000000081526004018080602001828103825260168152602001807f416c696173206e6f7420636c61696d6564207965742e0000000000000000000081525060200191505060405180910390fd5b3373ffffffffffffffffffffffffffffffffffffffff166006826040518082805190602001908083835b602083101515611030578051825260208201915060208101905060208303925061100b565b6001836020036101000a038019825116818451168082178552505050505050905001915050908152602001604051809103902060010160009054906101000a900473ffffffffffffffffffffffffffffffffffffffff1673ffffffffffffffffffffffffffffffffffffffff16141515611112576040517f08c379a00000000000000000000000000000000000000000000000000000000081526004018080602001828103825260108152602001807f416c696173206e6f7420796f7572732e0000000000000000000000000000000081525060200191505060405180910390fd5b6006816040518082805190602001908083835b60208310151561114a5780518252602082019150602081019050602083039250611125565b6001836020036101000a03801982511681845116808217855250505050505090500191505090815260200160405180910390206000808201600090556001820160006101000a81549073ffffffffffffffffffffffffffffffffffffffff021916905550506111c560016005546112f590919063ffffffff16565b6005819055507fb95ced475a0812049b1f36f4ef66c7a44d8405ec94d8efc2f9fda9d876a57b676005546040518082815260200191505060405180910390a150565b6000809054906101000a900473ffffffffffffffffffffffffffffffffffffffff1673ffffffffffffffffffffffffffffffffffffffff163373ffffffffffffffffffffffffffffffffffffffff1614151561126257600080fd5b600073ffffffffffffffffffffffffffffffffffffffff168173ffffffffffffffffffffffffffffffffffffffff161415151561129e57600080fd5b806000806101000a81548173ffffffffffffffffffffffffffffffffffffffff021916908373ffffffffffffffffffffffffffffffffffffffff16021790555050565b600060608290506000815114915050919050565b600082821115151561130357fe5b818303905092915050565b426006826040518082805190602001908083835b6020831015156113475780518252602082019150602081019050602083039250611322565b6001836020036101000a038019825116818451168082178552505050505050905001915050908152602001604051809103902060000181905550336006826040518082805190602001908083835b6020831015156113ba5780518252602082019150602081019050602083039250611395565b6001836020036101000a038019825116818451168082178552505050505050905001915050908152602001604051809103902060010160006101000a81548173ffffffffffffffffffffffffffffffffffffffff021916908373ffffffffffffffffffffffffffffffffffffffff160217905550600760003373ffffffffffffffffffffffffffffffffffffffff1673ffffffffffffffffffffffffffffffffffffffff1681526020019081526020016000208190806001815401808255809150509060018203906000526020600020016000909192909190915090805190602001906114a892919061151e565b50506114c0600160055461150290919063ffffffff16565b6005819055507fb95ced475a0812049b1f36f4ef66c7a44d8405ec94d8efc2f9fda9d876a57b676005546040518082815260200191505060405180910390a150565b6000818301905082811015151561151557fe5b80905092915050565b828054600181600116156101000203166002900490600052602060002090601f016020900481019282601f1061155f57805160ff191683800117855561158d565b8280016001018555821561158d579182015b8281111561158c578251825591602001919060010190611571565b5b50905061159a919061159e565b5090565b6115c091905b808211156115bc5760008160009055506001016115a4565b5090565b905600a165627a7a72305820811ec541c489212f01e8733626709d7ffaad89ee7d17b1cde6f0ee57eb89f4f20029",
  "source": "pragma solidity ^0.4.24;\r\n\r\n/**\r\n * @title SafeMath\r\n * @dev Math operations with safety checks that throw on error\r\n */\r\nlibrary SafeMath {\r\n\r\n  /**\r\n  * @dev Multiplies two numbers, throws on overflow.\r\n  */\r\n  function mul(uint256 a, uint256 b) internal pure returns (uint256 c) {\r\n    // Gas optimization: this is cheaper than asserting 'a' not being zero, but the\r\n    // benefit is lost if 'b' is also tested.\r\n    // See: https://github.com/OpenZeppelin/openzeppelin-solidity/pull/522\r\n    if (a == 0) {\r\n      return 0;\r\n    }\r\n\r\n    c = a * b;\r\n    assert(c / a == b);\r\n    return c;\r\n  }\r\n\r\n  /**\r\n  * @dev Integer division of two numbers, truncating the quotient.\r\n  */\r\n  function div(uint256 a, uint256 b) internal pure returns (uint256) {\r\n    // assert(b > 0); // Solidity automatically throws when dividing by 0\r\n    // uint256 c = a / b;\r\n    // assert(a == b * c + a % b); // There is no case in which this doesn't hold\r\n    return a / b;\r\n  }\r\n\r\n  /**\r\n  * @dev Subtracts two numbers, throws on overflow (i.e. if subtrahend is greater than minuend).\r\n  */\r\n  function sub(uint256 a, uint256 b) internal pure returns (uint256) {\r\n    assert(b <= a);\r\n    return a - b;\r\n  }\r\n\r\n  /**\r\n  * @dev Adds two numbers, throws on overflow.\r\n  */\r\n  function add(uint256 a, uint256 b) internal pure returns (uint256 c) {\r\n    c = a + b;\r\n    assert(c >= a);\r\n    return c;\r\n  }\r\n}\r\n\r\ninterface Token {\r\n  /// @return total amount of tokens\r\n  function totalSupply() external view returns (uint256 supply);\r\n\r\n  /// @param _owner The address from which the balance will be retrieved\r\n  /// @return The balance\r\n  function balanceOf(address _owner) external view returns (uint256 balance);\r\n\r\n  /// @notice send `_value` token to `_to` from `msg.sender`\r\n  /// @param _to The address of the recipient\r\n  /// @param _value The amount of token to be transferred\r\n  /// @return Whether the transfer was successful or not\r\n  function transfer(address _to, uint256 _value) external returns (bool success);\r\n\r\n  /// @notice send `_value` token to `_to` from `_from` on the condition it is approved by `_from`\r\n  /// @param _from The address of the sender\r\n  /// @param _to The address of the recipient\r\n  /// @param _value The amount of token to be transferred\r\n  /// @return Whether the transfer was successful or not\r\n  function transferFrom(address _from, address _to, uint256 _value) external returns (bool success);\r\n\r\n  /// @notice `msg.sender` approves `_addr` to spend `_value` tokens\r\n  /// @param _spender The address of the account able to transfer  tokens\r\n  /// @param _value The amount of wei to be approved for transferthe\r\n  /// @return Whether the approval was successful or not\r\n  function approve(address _spender, uint256 _value) external returns (bool success);\r\n\r\n  /// @param _owner The address of the account owning tokens\r\n  /// @param _spender The address of the account able to transfer the tokens\r\n  /// @return Amount of remaining tokens allowed to spent\r\n  function allowance(address _owner, address _spender) external view returns (uint256 remaining);\r\n\r\n  event Transfer(address indexed _from, address indexed _to, uint256 _value);\r\n  event Approval(address indexed _owner, address indexed _spender, uint256 _value);\r\n}\r\n/**\r\n * @title Ownable\r\n * @dev The Ownable contract has an owner address, and provides basic authorization control\r\n * functions, this simplifies the implementation of \"user permissions\".\r\n */\r\ncontract Ownable {\r\n  address public owner;\r\n\r\n  /**\r\n   * @dev The Ownable constructor sets the original `owner` of the contract to the sender\r\n   * account.\r\n   */\r\n  constructor() public {\r\n    owner = msg.sender;\r\n  }\r\n\r\n  /**\r\n   * @dev Throws if called by any account other than the owner.\r\n   */\r\n  modifier onlyOwner() {\r\n    require(msg.sender == owner);\r\n    _;\r\n  }\r\n\r\n  /**\r\n   * @dev Allows the current owner to transfer control of the contract to a newOwner.\r\n   * @param _newOwner The address to transfer ownership to.\r\n   */\r\n  function transferOwnership(address _newOwner) public onlyOwner {\r\n    require(_newOwner != address(0));\r\n    owner = _newOwner;\r\n  }\r\n}\r\n\r\ncontract AliasesV1 is Ownable {\r\n    using SafeMath for uint;\r\n    \r\n    struct Alias {\r\n        uint claimedOn;\r\n        address owner;\r\n    }\r\n    \r\n    // Address where funds are collected\r\n    address public wallet;\r\n\r\n    // Address of token collected collected\r\n    address public claimTokenAddress;\r\n    \r\n    // Amount of claim fee in tokens\r\n    uint public claimTokenFeeAmount;\r\n    \r\n    // Amount of claim fee in eth\r\n    uint public claimEthFeeAmount;\r\n    \r\n    // Total amount of claimed aliases\r\n    uint public claimedAliasesCount;\r\n    \r\n    /**\r\n    * Event for claimed aliases count change\r\n    * @param claimedAliasesCount the new count of total claimed aliases\r\n    */\r\n    event ClaimedAliasesCountChanged(uint claimedAliasesCount);\r\n    \r\n    mapping(string => Alias) private aliasesMap;\r\n    mapping(address => string[]) private addrAliasesMap;\r\n    \r\n    constructor(address _wallet, address _claimTokenAddress, uint _claimTokenFeeAmount, uint _claimEthFeeAmount) public {\r\n        require(_wallet != address(0));\r\n        require(_claimTokenAddress != address(0));\r\n        require(_claimTokenFeeAmount >= 0);\r\n        require(_claimEthFeeAmount >= 0);\r\n        \r\n        wallet = _wallet;\r\n        claimTokenAddress = _claimTokenAddress;\r\n        claimTokenFeeAmount = _claimTokenFeeAmount;\r\n        claimEthFeeAmount = _claimEthFeeAmount;\r\n    }\r\n\r\n    function isClaimedAlias(string _alias) public view returns (bool isClaimed) {\r\n        return aliasesMap[_alias].owner != address(0);\r\n    }\r\n    \r\n    function aliasToAddress(string _alias) public view returns (address addr) {\r\n        return aliasesMap[_alias].owner;\r\n    }\r\n    \r\n    function aliasesCount() public view returns (uint count) {\r\n        return addrAliasesMap[msg.sender].length;\r\n    }\r\n    \r\n    function aliasAtIndex(uint _index) public view returns (string alias) {\r\n        require(addrAliasesMap[msg.sender].length > _index, 'Invalid index.');\r\n        \r\n        string memory savedAlias = addrAliasesMap[msg.sender][_index];\r\n        if (aliasesMap[savedAlias].owner == msg.sender){\r\n            return savedAlias;\r\n        }\r\n        \r\n        return '';\r\n    }\r\n    \r\n    function claimAliasWithEth(string _alias) public payable {\r\n        require(!_isEmptyString(_alias), 'Invalid alias.');\r\n        require(!(isClaimedAlias(_alias)), 'Alias is already claimed.');\r\n        \r\n        if (claimEthFeeAmount > 0) {\r\n            require(msg.value >= claimEthFeeAmount);\r\n            wallet.transfer(claimEthFeeAmount);\r\n            msg.sender.transfer(msg.value.sub(claimEthFeeAmount));\r\n        }\r\n        \r\n        _claimAlias(_alias);\r\n    }\r\n    \r\n    function claimAliasWithToken(string _alias) public {\r\n        require(!_isEmptyString(_alias), 'Invalid alias.');\r\n        require(!(isClaimedAlias(_alias)), 'Alias is already claimed.');\r\n        \r\n        if (claimTokenFeeAmount > 0) {\r\n            //ensure approve() method or this contract will not be able to do the transfer on your behalf.\r\n            require(Token(claimTokenAddress).transferFrom(msg.sender, wallet, claimTokenFeeAmount));\r\n        }\r\n        \r\n        _claimAlias(_alias);\r\n    }\r\n    \r\n    function releaseAlias(string _alias) public {\r\n        require(!_isEmptyString(_alias), 'Invalid alias.');\r\n        require(isClaimedAlias(_alias), 'Alias not claimed yet.');\r\n        require(aliasesMap[_alias].owner == msg.sender, 'Alias not yours.');\r\n        \r\n        delete aliasesMap[_alias];\r\n        \r\n        claimedAliasesCount = claimedAliasesCount.sub(1);\r\n        emit ClaimedAliasesCountChanged(claimedAliasesCount);\r\n    }\r\n    \r\n    function _isEmptyString(string _val) private pure returns (bool isEmpty) {\r\n        bytes memory stringBytes = bytes(_val);\r\n        return stringBytes.length == 0;\r\n    }\r\n    \r\n    function _claimAlias(string _alias) private {\r\n        aliasesMap[_alias].claimedOn = now;\r\n        aliasesMap[_alias].owner = msg.sender;\r\n        \r\n        addrAliasesMap[msg.sender].push(_alias);\r\n        \r\n        claimedAliasesCount = claimedAliasesCount.add(1);\r\n        emit ClaimedAliasesCountChanged(claimedAliasesCount);\r\n    }\r\n}\r\n",
  "sourcePath": "C:\\Projects\\IDvNEXT\\IDVN.Solidity.Tests\\contracts\\Aliases.sol",
  "compiler": {
    "name": "solc",
    "version": "0.4.24+commit.e67f0147.Emscripten.clang"
  },
  "schemaVersion": "2.0.1",
  "updatedAt": "2018-07-13T21:27:23.028Z"
}