{
  "contractName": "AliasesV1",
  "abi": [
    {
      "constant": true,
      "inputs": [],
      "name": "claimedAliasesCount",
      "outputs": [
        {
          "name": "",
          "type": "uint256"
        }
      ],
      "payable": false,
      "stateMutability": "view",
      "type": "function"
    },
    {
      "constant": true,
      "inputs": [],
      "name": "wallet",
      "outputs": [
        {
          "name": "",
          "type": "address"
        }
      ],
      "payable": false,
      "stateMutability": "view",
      "type": "function"
    },
    {
      "constant": true,
      "inputs": [],
      "name": "claimEthFeeAmount",
      "outputs": [
        {
          "name": "",
          "type": "uint256"
        }
      ],
      "payable": false,
      "stateMutability": "view",
      "type": "function"
    },
    {
      "constant": true,
      "inputs": [],
      "name": "owner",
      "outputs": [
        {
          "name": "",
          "type": "address"
        }
      ],
      "payable": false,
      "stateMutability": "view",
      "type": "function"
    },
    {
      "constant": true,
      "inputs": [],
      "name": "claimTokenFeeAmount",
      "outputs": [
        {
          "name": "",
          "type": "uint256"
        }
      ],
      "payable": false,
      "stateMutability": "view",
      "type": "function"
    },
    {
      "constant": true,
      "inputs": [],
      "name": "claimTokenAddress",
      "outputs": [
        {
          "name": "",
          "type": "address"
        }
      ],
      "payable": false,
      "stateMutability": "view",
      "type": "function"
    },
    {
      "constant": false,
      "inputs": [
        {
          "name": "_newOwner",
          "type": "address"
        }
      ],
      "name": "transferOwnership",
      "outputs": [],
      "payable": false,
      "stateMutability": "nonpayable",
      "type": "function"
    },
    {
      "inputs": [
        {
          "name": "_wallet",
          "type": "address"
        },
        {
          "name": "_claimTokenAddress",
          "type": "address"
        },
        {
          "name": "_claimTokenFeeAmount",
          "type": "uint256"
        },
        {
          "name": "_claimEthFeeAmount",
          "type": "uint256"
        }
      ],
      "payable": false,
      "stateMutability": "nonpayable",
      "type": "constructor"
    },
    {
      "anonymous": false,
      "inputs": [
        {
          "indexed": false,
          "name": "claimedAliasesCount",
          "type": "uint256"
        }
      ],
      "name": "ClaimedAliasesCountChanged",
      "type": "event"
    },
    {
      "constant": false,
      "inputs": [
        {
          "name": "_newWallet",
          "type": "address"
        }
      ],
      "name": "transferWallet",
      "outputs": [],
      "payable": false,
      "stateMutability": "nonpayable",
      "type": "function"
    },
    {
      "constant": false,
      "inputs": [
        {
          "name": "_newClaimTokenFeeAmount",
          "type": "uint256"
        }
      ],
      "name": "changeClaimTokenFeeAmount",
      "outputs": [],
      "payable": false,
      "stateMutability": "nonpayable",
      "type": "function"
    },
    {
      "constant": false,
      "inputs": [
        {
          "name": "_newClaimEthFeeAmount",
          "type": "uint256"
        }
      ],
      "name": "changeClaimEthFeeAmount",
      "outputs": [],
      "payable": false,
      "stateMutability": "nonpayable",
      "type": "function"
    },
    {
      "constant": true,
      "inputs": [
        {
          "name": "_alias",
          "type": "string"
        }
      ],
      "name": "isClaimedAlias",
      "outputs": [
        {
          "name": "isClaimed",
          "type": "bool"
        }
      ],
      "payable": false,
      "stateMutability": "view",
      "type": "function"
    },
    {
      "constant": true,
      "inputs": [
        {
          "name": "_alias",
          "type": "string"
        }
      ],
      "name": "aliasToAddress",
      "outputs": [
        {
          "name": "addr",
          "type": "address"
        }
      ],
      "payable": false,
      "stateMutability": "view",
      "type": "function"
    },
    {
      "constant": true,
      "inputs": [],
      "name": "aliasesCount",
      "outputs": [
        {
          "name": "count",
          "type": "uint256"
        }
      ],
      "payable": false,
      "stateMutability": "view",
      "type": "function"
    },
    {
      "constant": true,
      "inputs": [
        {
          "name": "_index",
          "type": "uint256"
        }
      ],
      "name": "aliasAtIndex",
      "outputs": [
        {
          "name": "alias",
          "type": "string"
        }
      ],
      "payable": false,
      "stateMutability": "view",
      "type": "function"
    },
    {
      "constant": false,
      "inputs": [
        {
          "name": "_alias",
          "type": "string"
        }
      ],
      "name": "claimAliasWithEth",
      "outputs": [],
      "payable": true,
      "stateMutability": "payable",
      "type": "function"
    },
    {
      "constant": false,
      "inputs": [
        {
          "name": "_alias",
          "type": "string"
        }
      ],
      "name": "claimAliasWithToken",
      "outputs": [],
      "payable": false,
      "stateMutability": "nonpayable",
      "type": "function"
    },
    {
      "constant": false,
      "inputs": [
        {
          "name": "_alias",
          "type": "string"
        }
      ],
      "name": "releaseAlias",
      "outputs": [],
      "payable": false,
      "stateMutability": "nonpayable",
      "type": "function"
    }
  ],
  "bytecode": "0x608060405234801561001057600080fd5b50604051608080611bdc83398101806040528101908080519060200190929190805190602001909291908051906020019092919080519060200190929190505050336000806101000a81548173ffffffffffffffffffffffffffffffffffffffff021916908373ffffffffffffffffffffffffffffffffffffffff160217905550600073ffffffffffffffffffffffffffffffffffffffff168473ffffffffffffffffffffffffffffffffffffffff16141515156100cd57600080fd5b600073ffffffffffffffffffffffffffffffffffffffff168373ffffffffffffffffffffffffffffffffffffffff161415151561010957600080fd5b6000821015151561011957600080fd5b6000811015151561012957600080fd5b83600160006101000a81548173ffffffffffffffffffffffffffffffffffffffff021916908373ffffffffffffffffffffffffffffffffffffffff16021790555082600260006101000a81548173ffffffffffffffffffffffffffffffffffffffff021916908373ffffffffffffffffffffffffffffffffffffffff160217905550816003819055508060048190555050505050611a10806101cc6000396000f3006080604052600436106100f1576000357c0100000000000000000000000000000000000000000000000000000000900463ffffffff16806302dd3177146100f6578063227fde221461019f5780634be02e5a146101ca578063521eb273146101f757806367104ff21461024e578063732719e91461027b5780637bb52a77146102a65780638da5cb5b146102d15780639bcf3c0814610328578063a0d1cc05146103ce578063a73b8ec11461042a578063acc06902146104ab578063b4064d2a146104d6578063ca573cf01461052d578063cc50d33314610596578063d8cba0ba146105ff578063f2fde38b14610642575b600080fd5b34801561010257600080fd5b5061015d600480360381019080803590602001908201803590602001908080601f0160208091040260200160405190810160405280939291908181526020018383808284378201915050505050509192919290505050610685565b604051808273ffffffffffffffffffffffffffffffffffffffff1673ffffffffffffffffffffffffffffffffffffffff16815260200191505060405180910390f35b3480156101ab57600080fd5b506101b461071d565b6040518082815260200191505060405180910390f35b3480156101d657600080fd5b506101f560048036038101908080359060200190929190505050610723565b005b34801561020357600080fd5b5061020c610798565b604051808273ffffffffffffffffffffffffffffffffffffffff1673ffffffffffffffffffffffffffffffffffffffff16815260200191505060405180910390f35b34801561025a57600080fd5b50610279600480360381019080803590602001909291905050506107be565b005b34801561028757600080fd5b50610290610833565b6040518082815260200191505060405180910390f35b3480156102b257600080fd5b506102bb61087d565b6040518082815260200191505060405180910390f35b3480156102dd57600080fd5b506102e6610883565b604051808273ffffffffffffffffffffffffffffffffffffffff1673ffffffffffffffffffffffffffffffffffffffff16815260200191505060405180910390f35b34801561033457600080fd5b50610353600480360381019080803590602001909291905050506108a8565b6040518080602001828103825283818151815260200191508051906020019080838360005b83811015610393578082015181840152602081019050610378565b50505050905090810190601f1680156103c05780820380516001836020036101000a031916815260200191505b509250505060405180910390f35b610428600480360381019080803590602001908201803590602001908080601f0160208091040260200160405190810160405280939291908181526020018383808284378201915050505050509192919290505050610b39565b005b34801561043657600080fd5b50610491600480360381019080803590602001908201803590602001908080601f0160208091040260200160405190810160405280939291908181526020018383808284378201915050505050509192919290505050610d26565b604051808215151515815260200191505060405180910390f35b3480156104b757600080fd5b506104c0610ded565b6040518082815260200191505060405180910390f35b3480156104e257600080fd5b506104eb610df3565b604051808273ffffffffffffffffffffffffffffffffffffffff1673ffffffffffffffffffffffffffffffffffffffff16815260200191505060405180910390f35b34801561053957600080fd5b50610594600480360381019080803590602001908201803590602001908080601f0160208091040260200160405190810160405280939291908181526020018383808284378201915050505050509192919290505050610e19565b005b3480156105a257600080fd5b506105fd600480360381019080803590602001908201803590602001908080601f0160208091040260200160405190810160405280939291908181526020018383808284378201915050505050509192919290505050611092565b005b34801561060b57600080fd5b50610640600480360381019080803573ffffffffffffffffffffffffffffffffffffffff1690602001909291905050506113cf565b005b34801561064e57600080fd5b50610683600480360381019080803573ffffffffffffffffffffffffffffffffffffffff1690602001909291905050506114aa565b005b60006006826040518082805190602001908083835b6020831015156106bf578051825260208201915060208101905060208303925061069a565b6001836020036101000a038019825116818451168082178552505050505050905001915050908152602001604051809103902060010160009054906101000a900473ffffffffffffffffffffffffffffffffffffffff169050919050565b60055481565b6000809054906101000a900473ffffffffffffffffffffffffffffffffffffffff1673ffffffffffffffffffffffffffffffffffffffff163373ffffffffffffffffffffffffffffffffffffffff1614151561077e57600080fd5b6000811015151561078e57600080fd5b8060048190555050565b600160009054906101000a900473ffffffffffffffffffffffffffffffffffffffff1681565b6000809054906101000a900473ffffffffffffffffffffffffffffffffffffffff1673ffffffffffffffffffffffffffffffffffffffff163373ffffffffffffffffffffffffffffffffffffffff1614151561081957600080fd5b6000811015151561082957600080fd5b8060038190555050565b6000600760003373ffffffffffffffffffffffffffffffffffffffff1673ffffffffffffffffffffffffffffffffffffffff16815260200190815260200160002080549050905090565b60045481565b6000809054906101000a900473ffffffffffffffffffffffffffffffffffffffff1681565b60608082600760003373ffffffffffffffffffffffffffffffffffffffff1673ffffffffffffffffffffffffffffffffffffffff16815260200190815260200160002080549050111515610964576040517f08c379a000000000000000000000000000000000000000000000000000000000815260040180806020018281038252600e8152602001807f496e76616c696420696e6465782e00000000000000000000000000000000000081525060200191505060405180910390fd5b600760003373ffffffffffffffffffffffffffffffffffffffff1673ffffffffffffffffffffffffffffffffffffffff168152602001908152602001600020838154811015156109b057fe5b906000526020600020018054600181600116156101000203166002900480601f016020809104026020016040519081016040528092919081815260200182805460018160011615610100020316600290048015610a4e5780601f10610a2357610100808354040283529160200191610a4e565b820191906000526020600020905b815481529060010190602001808311610a3157829003601f168201915b505050505090503373ffffffffffffffffffffffffffffffffffffffff166006826040518082805190602001908083835b602083101515610aa45780518252602082019150602081019050602083039250610a7f565b6001836020036101000a038019825116818451168082178552505050505050905001915050908152602001604051809103902060010160009054906101000a900473ffffffffffffffffffffffffffffffffffffffff1673ffffffffffffffffffffffffffffffffffffffff161415610b1f57809150610b33565b602060405190810160405280600081525091505b50919050565b610b4281611584565b151515610bb7576040517f08c379a000000000000000000000000000000000000000000000000000000000815260040180806020018281038252600e8152602001807f496e76616c696420616c6961732e00000000000000000000000000000000000081525060200191505060405180910390fd5b610bc081610d26565b151515610c35576040517f08c379a00000000000000000000000000000000000000000000000000000000081526004018080602001828103825260198152602001807f416c69617320697320616c726561647920636c61696d65642e0000000000000081525060200191505060405180910390fd5b60006004541115610d18576004543410151515610c5157600080fd5b600160009054906101000a900473ffffffffffffffffffffffffffffffffffffffff1673ffffffffffffffffffffffffffffffffffffffff166108fc6004549081150290604051600060405180830381858888f19350505050158015610cbb573d6000803e3d6000fd5b503373ffffffffffffffffffffffffffffffffffffffff166108fc610ceb6004543461159890919063ffffffff16565b9081150290604051600060405180830381858888f19350505050158015610d16573d6000803e3d6000fd5b505b610d238160016115b1565b50565b60008073ffffffffffffffffffffffffffffffffffffffff166006836040518082805190602001908083835b602083101515610d775780518252602082019150602081019050602083039250610d52565b6001836020036101000a038019825116818451168082178552505050505050905001915050908152602001604051809103902060010160009054906101000a900473ffffffffffffffffffffffffffffffffffffffff1673ffffffffffffffffffffffffffffffffffffffff1614159050919050565b60035481565b600260009054906101000a900473ffffffffffffffffffffffffffffffffffffffff1681565b610e2281611584565b151515610e97576040517f08c379a000000000000000000000000000000000000000000000000000000000815260040180806020018281038252600e8152602001807f496e76616c696420616c6961732e00000000000000000000000000000000000081525060200191505060405180910390fd5b610ea081610d26565b151515610f15576040517f08c379a00000000000000000000000000000000000000000000000000000000081526004018080602001828103825260198152602001807f416c69617320697320616c726561647920636c61696d65642e0000000000000081525060200191505060405180910390fd5b6000600354111561108457600260009054906101000a900473ffffffffffffffffffffffffffffffffffffffff1673ffffffffffffffffffffffffffffffffffffffff166323b872dd33600160009054906101000a900473ffffffffffffffffffffffffffffffffffffffff166003546040518463ffffffff167c0100000000000000000000000000000000000000000000000000000000028152600401808473ffffffffffffffffffffffffffffffffffffffff1673ffffffffffffffffffffffffffffffffffffffff1681526020018373ffffffffffffffffffffffffffffffffffffffff1673ffffffffffffffffffffffffffffffffffffffff1681526020018281526020019350505050602060405180830381600087803b15801561103d57600080fd5b505af1158015611051573d6000803e3d6000fd5b505050506040513d602081101561106757600080fd5b8101908080519060200190929190505050151561108357600080fd5b5b61108f8160006115b1565b50565b61109b81611584565b151515611110576040517f08c379a000000000000000000000000000000000000000000000000000000000815260040180806020018281038252600e8152602001807f496e76616c696420616c6961732e00000000000000000000000000000000000081525060200191505060405180910390fd5b61111981610d26565b151561118d576040517f08c379a00000000000000000000000000000000000000000000000000000000081526004018080602001828103825260168152602001807f416c696173206e6f7420636c61696d6564207965742e0000000000000000000081525060200191505060405180910390fd5b3373ffffffffffffffffffffffffffffffffffffffff166006826040518082805190602001908083835b6020831015156111dc57805182526020820191506020810190506020830392506111b7565b6001836020036101000a038019825116818451168082178552505050505050905001915050908152602001604051809103902060010160009054906101000a900473ffffffffffffffffffffffffffffffffffffffff1673ffffffffffffffffffffffffffffffffffffffff161415156112be576040517f08c379a00000000000000000000000000000000000000000000000000000000081526004018080602001828103825260108152602001807f416c696173206e6f7420796f7572732e0000000000000000000000000000000081525060200191505060405180910390fd5b6006816040518082805190602001908083835b6020831015156112f657805182526020820191506020810190506020830392506112d1565b6001836020036101000a03801982511681845116808217855250505050505090500191505090815260200160405180910390206000808201600090556001820160006101000a81549073ffffffffffffffffffffffffffffffffffffffff021916905560028201600090556003820160006101000a81549060ff0219169055505061138d600160055461159890919063ffffffff16565b6005819055507fb95ced475a0812049b1f36f4ef66c7a44d8405ec94d8efc2f9fda9d876a57b676005546040518082815260200191505060405180910390a150565b6000809054906101000a900473ffffffffffffffffffffffffffffffffffffffff1673ffffffffffffffffffffffffffffffffffffffff163373ffffffffffffffffffffffffffffffffffffffff1614151561142a57600080fd5b600073ffffffffffffffffffffffffffffffffffffffff168173ffffffffffffffffffffffffffffffffffffffff161415151561146657600080fd5b80600160006101000a81548173ffffffffffffffffffffffffffffffffffffffff021916908373ffffffffffffffffffffffffffffffffffffffff16021790555050565b6000809054906101000a900473ffffffffffffffffffffffffffffffffffffffff1673ffffffffffffffffffffffffffffffffffffffff163373ffffffffffffffffffffffffffffffffffffffff1614151561150557600080fd5b600073ffffffffffffffffffffffffffffffffffffffff168173ffffffffffffffffffffffffffffffffffffffff161415151561154157600080fd5b806000806101000a81548173ffffffffffffffffffffffffffffffffffffffff021916908373ffffffffffffffffffffffffffffffffffffffff16021790555050565b600060608290506000815114915050919050565b60008282111515156115a657fe5b818303905092915050565b426006836040518082805190602001908083835b6020831015156115ea57805182526020820191506020810190506020830392506115c5565b6001836020036101000a038019825116818451168082178552505050505050905001915050908152602001604051809103902060000181905550336006836040518082805190602001908083835b60208310151561165d5780518252602082019150602081019050602083039250611638565b6001836020036101000a038019825116818451168082178552505050505050905001915050908152602001604051809103902060010160006101000a81548173ffffffffffffffffffffffffffffffffffffffff021916908373ffffffffffffffffffffffffffffffffffffffff16021790555080156117d85760016006836040518082805190602001908083835b60208310151561171157805182526020820191506020810190506020830392506116ec565b6001836020036101000a038019825116818451168082178552505050505050905001915050908152602001604051809103902060030160006101000a81548160ff0219169083151502179055506004546006836040518082805190602001908083835b6020831015156117995780518252602082019150602081019050602083039250611774565b6001836020036101000a03801982511681845116808217855250505050505090500191505090815260200160405180910390206002018190555061184e565b6003546006836040518082805190602001908083835b60208310151561181357805182526020820191506020810190506020830392506117ee565b6001836020036101000a0380198251168184511680821785525050505050509050019150509081526020016040518091039020600201819055505b600760003373ffffffffffffffffffffffffffffffffffffffff1673ffffffffffffffffffffffffffffffffffffffff1681526020019081526020016000208290806001815401808255809150509060018203906000526020600020016000909192909190915090805190602001906118c892919061193f565b50506118e0600160055461192390919063ffffffff16565b6005819055507fb95ced475a0812049b1f36f4ef66c7a44d8405ec94d8efc2f9fda9d876a57b676005546040518082815260200191505060405180910390a15050565b6000818301905082811015151561193657fe5b80905092915050565b828054600181600116156101000203166002900490600052602060002090601f016020900481019282601f1061198057805160ff19168380011785556119ae565b828001600101855582156119ae579182015b828111156119ad578251825591602001919060010190611992565b5b5090506119bb91906119bf565b5090565b6119e191905b808211156119dd5760008160009055506001016119c5565b5090565b905600a165627a7a723058208c3252549d0234fab9c311f28dc4da8aa8297fe5fb817826614e7e746f276ed50029",
  "source": "pragma solidity ^0.4.23;\r\n\r\nimport { SafeMath } from './SafeMath.sol';\r\nimport { Ownable } from './Ownable.sol';\r\nimport { Token } from './Token.sol';\r\n\r\ncontract AliasesV1 is Ownable {\r\n    using SafeMath for uint;\r\n    \r\n    struct Alias {\r\n        uint claimedOn;\r\n        address owner;\r\n        uint fee;\r\n        bool claimedWithEth;\r\n    }\r\n    \r\n    // Address where funds are collected\r\n    address public wallet;\r\n\r\n    // Address of token collected collected\r\n    address public claimTokenAddress;\r\n    \r\n    // Amount of claim fee in tokens\r\n    uint public claimTokenFeeAmount;\r\n    \r\n    // Amount of claim fee in eth\r\n    uint public claimEthFeeAmount;\r\n    \r\n    // Total amount of claimed aliases\r\n    uint public claimedAliasesCount;\r\n    \r\n    /**\r\n    * Event for claimed aliases count change\r\n    * @param claimedAliasesCount the new count of total claimed aliases\r\n    */\r\n    event ClaimedAliasesCountChanged(uint claimedAliasesCount);\r\n    \r\n    mapping(string => Alias) private aliasesMap;\r\n    mapping(address => string[]) private addrAliasesMap;\r\n    \r\n    constructor(address _wallet, address _claimTokenAddress, uint _claimTokenFeeAmount, uint _claimEthFeeAmount) public {\r\n        require(_wallet != address(0));\r\n        require(_claimTokenAddress != address(0));\r\n        require(_claimTokenFeeAmount >= 0);\r\n        require(_claimEthFeeAmount >= 0);\r\n        \r\n        wallet = _wallet;\r\n        claimTokenAddress = _claimTokenAddress;\r\n        claimTokenFeeAmount = _claimTokenFeeAmount;\r\n        claimEthFeeAmount = _claimEthFeeAmount;\r\n    }\r\n    \r\n    function transferWallet(address _newWallet) public onlyOwner {\r\n        require(_newWallet != address(0));\r\n        wallet = _newWallet;\r\n    }\r\n    \r\n    function changeClaimTokenFeeAmount(uint _newClaimTokenFeeAmount) public onlyOwner {\r\n        require(_newClaimTokenFeeAmount >= 0);\r\n        claimTokenFeeAmount = _newClaimTokenFeeAmount;\r\n    }\r\n    \r\n    function changeClaimEthFeeAmount(uint _newClaimEthFeeAmount) public onlyOwner {\r\n        require(_newClaimEthFeeAmount >= 0);\r\n        claimEthFeeAmount = _newClaimEthFeeAmount;\r\n    }\r\n\r\n    function isClaimedAlias(string _alias) public view returns (bool isClaimed) {\r\n        return aliasesMap[_alias].owner != address(0);\r\n    }\r\n    \r\n    function aliasToAddress(string _alias) public view returns (address addr) {\r\n        return aliasesMap[_alias].owner;\r\n    }\r\n    \r\n    function aliasesCount() public view returns (uint count) {\r\n        return addrAliasesMap[msg.sender].length;\r\n    }\r\n    \r\n    function aliasAtIndex(uint _index) public view returns (string alias) {\r\n        require(addrAliasesMap[msg.sender].length > _index, 'Invalid index.');\r\n        \r\n        string memory savedAlias = addrAliasesMap[msg.sender][_index];\r\n        if (aliasesMap[savedAlias].owner == msg.sender){\r\n            return savedAlias;\r\n        }\r\n        \r\n        return '';\r\n    }\r\n    \r\n    function claimAliasWithEth(string _alias) public payable {\r\n        require(!_isEmptyString(_alias), 'Invalid alias.');\r\n        require(!(isClaimedAlias(_alias)), 'Alias is already claimed.');\r\n        \r\n        if (claimEthFeeAmount > 0) {\r\n            require(msg.value >= claimEthFeeAmount);\r\n            wallet.transfer(claimEthFeeAmount);\r\n            msg.sender.transfer(msg.value.sub(claimEthFeeAmount));\r\n        }\r\n        \r\n        _claimAlias(_alias, true);\r\n    }\r\n    \r\n    function claimAliasWithToken(string _alias) public {\r\n        require(!_isEmptyString(_alias), 'Invalid alias.');\r\n        require(!(isClaimedAlias(_alias)), 'Alias is already claimed.');\r\n        \r\n        if (claimTokenFeeAmount > 0) {\r\n            //ensure approve() method or this contract will not be able to do the transfer on your behalf.\r\n            require(Token(claimTokenAddress).transferFrom(msg.sender, wallet, claimTokenFeeAmount));\r\n        }\r\n        \r\n        _claimAlias(_alias, false);\r\n    }\r\n    \r\n    function releaseAlias(string _alias) public {\r\n        require(!_isEmptyString(_alias), 'Invalid alias.');\r\n        require(isClaimedAlias(_alias), 'Alias not claimed yet.');\r\n        require(aliasesMap[_alias].owner == msg.sender, 'Alias not yours.');\r\n        \r\n        delete aliasesMap[_alias];\r\n        \r\n        claimedAliasesCount = claimedAliasesCount.sub(1);\r\n        emit ClaimedAliasesCountChanged(claimedAliasesCount);\r\n    }\r\n    \r\n    function _isEmptyString(string _val) private pure returns (bool isEmpty) {\r\n        bytes memory stringBytes = bytes(_val);\r\n        return stringBytes.length == 0;\r\n    }\r\n    \r\n    function _claimAlias(string _alias, bool _claimWithEth) private {\r\n        aliasesMap[_alias].claimedOn = now;\r\n        aliasesMap[_alias].owner = msg.sender;\r\n        \r\n        if (_claimWithEth) {\r\n            aliasesMap[_alias].claimedWithEth = true;\r\n            aliasesMap[_alias].fee = claimEthFeeAmount;\r\n        }\r\n        else{\r\n            aliasesMap[_alias].fee = claimTokenFeeAmount;\r\n        }\r\n        \r\n        addrAliasesMap[msg.sender].push(_alias);\r\n        \r\n        claimedAliasesCount = claimedAliasesCount.add(1);\r\n        emit ClaimedAliasesCountChanged(claimedAliasesCount);\r\n    }\r\n}\r\n",
  "sourcePath": "C:\\Projects\\IDvNEXT\\IDVN.Solidity\\contracts\\Aliases.sol",
  "compiler": {
    "name": "solc",
    "version": "0.4.24+commit.e67f0147.Emscripten.clang"
  },
  "schemaVersion": "2.0.1",
  "updatedAt": "2018-07-14T09:23:56.759Z"
}